{
  "_format": "hh-sol-artifact-1",
  "contractName": "GaslessForwarder",
  "sourceName": "contracts/GaslessForwarder.sol",
  "abi": [
    {
      "inputs": [],
      "stateMutability": "nonpayable",
      "type": "constructor"
    },
    {
      "inputs": [],
      "name": "ECDSAInvalidSignature",
      "type": "error"
    },
    {
      "inputs": [
        {
          "internalType": "uint256",
          "name": "length",
          "type": "uint256"
        }
      ],
      "name": "ECDSAInvalidSignatureLength",
      "type": "error"
    },
    {
      "inputs": [
        {
          "internalType": "bytes32",
          "name": "s",
          "type": "bytes32"
        }
      ],
      "name": "ECDSAInvalidSignatureS",
      "type": "error"
    },
    {
      "anonymous": false,
      "inputs": [
        {
          "indexed": true,
          "internalType": "address",
          "name": "previousOwner",
          "type": "address"
        },
        {
          "indexed": true,
          "internalType": "address",
          "name": "newOwner",
          "type": "address"
        }
      ],
      "name": "OwnershipTransferred",
      "type": "event"
    },
    {
      "anonymous": false,
      "inputs": [
        {
          "indexed": true,
          "internalType": "address",
          "name": "relayer",
          "type": "address"
        }
      ],
      "name": "RelayerAdded",
      "type": "event"
    },
    {
      "anonymous": false,
      "inputs": [
        {
          "indexed": true,
          "internalType": "address",
          "name": "relayer",
          "type": "address"
        }
      ],
      "name": "RelayerRemoved",
      "type": "event"
    },
    {
      "anonymous": false,
      "inputs": [
        {
          "indexed": true,
          "internalType": "address",
          "name": "from",
          "type": "address"
        },
        {
          "indexed": true,
          "internalType": "address",
          "name": "to",
          "type": "address"
        },
        {
          "indexed": false,
          "internalType": "uint256",
          "name": "value",
          "type": "uint256"
        },
        {
          "indexed": false,
          "internalType": "bytes",
          "name": "data",
          "type": "bytes"
        }
      ],
      "name": "TransactionForwarded",
      "type": "event"
    },
    {
      "inputs": [
        {
          "internalType": "address",
          "name": "_relayer",
          "type": "address"
        }
      ],
      "name": "addRelayer",
      "outputs": [],
      "stateMutability": "nonpayable",
      "type": "function"
    },
    {
      "inputs": [
        {
          "components": [
            {
              "internalType": "address",
              "name": "from",
              "type": "address"
            },
            {
              "internalType": "address",
              "name": "to",
              "type": "address"
            },
            {
              "internalType": "uint256",
              "name": "value",
              "type": "uint256"
            },
            {
              "internalType": "uint256",
              "name": "nonce",
              "type": "uint256"
            },
            {
              "internalType": "bytes",
              "name": "data",
              "type": "bytes"
            }
          ],
          "internalType": "struct GaslessForwarder.ForwardRequest",
          "name": "req",
          "type": "tuple"
        },
        {
          "internalType": "bytes",
          "name": "signature",
          "type": "bytes"
        }
      ],
      "name": "executeTransaction",
      "outputs": [],
      "stateMutability": "nonpayable",
      "type": "function"
    },
    {
      "inputs": [
        {
          "internalType": "address",
          "name": "account",
          "type": "address"
        }
      ],
      "name": "getNonce",
      "outputs": [
        {
          "internalType": "uint256",
          "name": "",
          "type": "uint256"
        }
      ],
      "stateMutability": "view",
      "type": "function"
    },
    {
      "inputs": [
        {
          "internalType": "address",
          "name": "",
          "type": "address"
        }
      ],
      "name": "nonces",
      "outputs": [
        {
          "internalType": "uint256",
          "name": "",
          "type": "uint256"
        }
      ],
      "stateMutability": "view",
      "type": "function"
    },
    {
      "inputs": [],
      "name": "owner",
      "outputs": [
        {
          "internalType": "address",
          "name": "",
          "type": "address"
        }
      ],
      "stateMutability": "view",
      "type": "function"
    },
    {
      "inputs": [
        {
          "internalType": "address",
          "name": "",
          "type": "address"
        }
      ],
      "name": "relayers",
      "outputs": [
        {
          "internalType": "bool",
          "name": "",
          "type": "bool"
        }
      ],
      "stateMutability": "view",
      "type": "function"
    },
    {
      "inputs": [
        {
          "internalType": "address",
          "name": "_relayer",
          "type": "address"
        }
      ],
      "name": "removeRelayer",
      "outputs": [],
      "stateMutability": "nonpayable",
      "type": "function"
    },
    {
      "inputs": [
        {
          "internalType": "address",
          "name": "newOwner",
          "type": "address"
        }
      ],
      "name": "transferOwnership",
      "outputs": [],
      "stateMutability": "nonpayable",
      "type": "function"
    }
  ],
  "bytecode": "0x608060405234801561001057600080fd5b50336000806101000a81548173ffffffffffffffffffffffffffffffffffffffff021916908373ffffffffffffffffffffffffffffffffffffffff160217905550611876806100606000396000f3fe608060405234801561001057600080fd5b50600436106100885760003560e01c8063824f9dc51161005b578063824f9dc5146101395780638da5cb5b14610155578063dd39f00d14610173578063f2fde38b1461018f57610088565b80632d0335ab1461008d5780635300f841146100bd57806360f0a5ac146100ed5780637ecebe0014610109575b600080fd5b6100a760048036038101906100a29190610f3d565b6101ab565b6040516100b49190610f83565b60405180910390f35b6100d760048036038101906100d29190610f3d565b6101f4565b6040516100e49190610fb9565b60405180910390f35b61010760048036038101906101029190610f3d565b610214565b005b610123600480360381019061011e9190610f3d565b6103cc565b6040516101309190610f83565b60405180910390f35b610153600480360381019061014e919061105d565b6103e4565b005b61015d61085f565b60405161016a91906110e8565b60405180910390f35b61018d60048036038101906101889190610f3d565b610883565b005b6101a960048036038101906101a49190610f3d565b610a3b565b005b6000600260008373ffffffffffffffffffffffffffffffffffffffff1673ffffffffffffffffffffffffffffffffffffffff168152602001908152602001600020549050919050565b60016020528060005260406000206000915054906101000a900460ff1681565b60008054906101000a900473ffffffffffffffffffffffffffffffffffffffff1673ffffffffffffffffffffffffffffffffffffffff163373ffffffffffffffffffffffffffffffffffffffff16146102a2576040517f08c379a000000000000000000000000000000000000000000000000000000000815260040161029990611186565b60405180910390fd5b600160008273ffffffffffffffffffffffffffffffffffffffff1673ffffffffffffffffffffffffffffffffffffffff16815260200190815260200160002060009054906101000a900460ff1661032e576040517f08c379a0000000000000000000000000000000000000000000000000000000008152600401610325906111f2565b60405180910390fd5b6000600160008373ffffffffffffffffffffffffffffffffffffffff1673ffffffffffffffffffffffffffffffffffffffff16815260200190815260200160002060006101000a81548160ff0219169083151502179055508073ffffffffffffffffffffffffffffffffffffffff167f10e1f7ce9fd7d1b90a66d13a2ab3cb8dd7f29f3f8d520b143b063ccfbab6906b60405160405180910390a250565b60026020528060005260406000206000915090505481565b600160003373ffffffffffffffffffffffffffffffffffffffff1673ffffffffffffffffffffffffffffffffffffffff16815260200190815260200160002060009054906101000a900460ff16610470576040517f08c379a00000000000000000000000000000000000000000000000000000000081526004016104679061125e565b60405180910390fd5b60008360000160208101906104859190610f3d565b8460200160208101906104989190610f3d565b856040013586606001358780608001906104b2919061128d565b6040516020016104c79695949392919061134e565b6040516020818303038152906040528051906020012090506000816040516020016104f2919061142c565b604051602081830303815290604052805190602001209050600061056385858080601f016020809104026020016040519081016040528093929190818152602001838380828437600081840152601f19601f8201169050808301925050505050505083610bf590919063ffffffff16565b90508560000160208101906105789190610f3d565b73ffffffffffffffffffffffffffffffffffffffff168173ffffffffffffffffffffffffffffffffffffffff16146105e5576040517f08c379a00000000000000000000000000000000000000000000000000000000081526004016105dc9061149e565b60405180910390fd5b8560600135600260008860000160208101906106019190610f3d565b73ffffffffffffffffffffffffffffffffffffffff1673ffffffffffffffffffffffffffffffffffffffff168152602001908152602001600020541461067c576040517f08c379a00000000000000000000000000000000000000000000000000000000081526004016106739061150a565b60405180910390fd5b600260008760000160208101906106939190610f3d565b73ffffffffffffffffffffffffffffffffffffffff1673ffffffffffffffffffffffffffffffffffffffff16815260200190815260200160002060008154809291906106de90611559565b919050555060008660200160208101906106f89190610f3d565b73ffffffffffffffffffffffffffffffffffffffff168760400135888060800190610723919061128d565b6040516107319291906115d1565b60006040518083038185875af1925050503d806000811461076e576040519150601f19603f3d011682016040523d82523d6000602084013e610773565b606091505b50509050806107b7576040517f08c379a00000000000000000000000000000000000000000000000000000000081526004016107ae90611636565b60405180910390fd5b8660200160208101906107ca9190610f3d565b73ffffffffffffffffffffffffffffffffffffffff168760000160208101906107f39190610f3d565b73ffffffffffffffffffffffffffffffffffffffff167fabc57338c8c17e63d416364c3363d688a4c8cdf40927ba31eed5482d2bdf0ccf89604001358a806080019061083f919061128d565b60405161084e93929190611656565b60405180910390a350505050505050565b60008054906101000a900473ffffffffffffffffffffffffffffffffffffffff1681565b60008054906101000a900473ffffffffffffffffffffffffffffffffffffffff1673ffffffffffffffffffffffffffffffffffffffff163373ffffffffffffffffffffffffffffffffffffffff1614610911576040517f08c379a000000000000000000000000000000000000000000000000000000000815260040161090890611186565b60405180910390fd5b600160008273ffffffffffffffffffffffffffffffffffffffff1673ffffffffffffffffffffffffffffffffffffffff16815260200190815260200160002060009054906101000a900460ff161561099e576040517f08c379a0000000000000000000000000000000000000000000000000000000008152600401610995906116d4565b60405180910390fd5b60018060008373ffffffffffffffffffffffffffffffffffffffff1673ffffffffffffffffffffffffffffffffffffffff16815260200190815260200160002060006101000a81548160ff0219169083151502179055508073ffffffffffffffffffffffffffffffffffffffff167f03580ee9f53a62b7cb409a2cb56f9be87747dd15017afc5cef6eef321e4fb2c560405160405180910390a250565b60008054906101000a900473ffffffffffffffffffffffffffffffffffffffff1673ffffffffffffffffffffffffffffffffffffffff163373ffffffffffffffffffffffffffffffffffffffff1614610ac9576040517f08c379a0000000000000000000000000000000000000000000000000000000008152600401610ac090611186565b60405180910390fd5b600073ffffffffffffffffffffffffffffffffffffffff168173ffffffffffffffffffffffffffffffffffffffff1603610b38576040517f08c379a0000000000000000000000000000000000000000000000000000000008152600401610b2f90611766565b60405180910390fd5b8073ffffffffffffffffffffffffffffffffffffffff1660008054906101000a900473ffffffffffffffffffffffffffffffffffffffff1673ffffffffffffffffffffffffffffffffffffffff167f8be0079c531659141344cd1fd0a4f28419497f9722a3daafe3b4186f6b6457e060405160405180910390a3806000806101000a81548173ffffffffffffffffffffffffffffffffffffffff021916908373ffffffffffffffffffffffffffffffffffffffff16021790555050565b600080600080610c058686610c21565b925092509250610c158282610c7d565b82935050505092915050565b60008060006041845103610c665760008060006020870151925060408701519150606087015160001a9050610c5888828585610de1565b955095509550505050610c76565b60006002855160001b9250925092505b9250925092565b60006003811115610c9157610c90611786565b5b826003811115610ca457610ca3611786565b5b0315610ddd5760016003811115610cbe57610cbd611786565b5b826003811115610cd157610cd0611786565b5b03610d08576040517ff645eedf00000000000000000000000000000000000000000000000000000000815260040160405180910390fd5b60026003811115610d1c57610d1b611786565b5b826003811115610d2f57610d2e611786565b5b03610d74578060001c6040517ffce698f7000000000000000000000000000000000000000000000000000000008152600401610d6b9190610f83565b60405180910390fd5b600380811115610d8757610d86611786565b5b826003811115610d9a57610d99611786565b5b03610ddc57806040517fd78bce0c000000000000000000000000000000000000000000000000000000008152600401610dd391906117c4565b60405180910390fd5b5b5050565b60008060007f7fffffffffffffffffffffffffffffff5d576e7357a4501ddfe92f46681b20a08460001c1115610e21576000600385925092509250610ecb565b600060018888888860405160008152602001604052604051610e4694939291906117fb565b6020604051602081039080840390855afa158015610e68573d6000803e3d6000fd5b505050602060405103519050600073ffffffffffffffffffffffffffffffffffffffff168173ffffffffffffffffffffffffffffffffffffffff1603610ebc57600060016000801b93509350935050610ecb565b8060008060001b935093509350505b9450945094915050565b600080fd5b600080fd5b600073ffffffffffffffffffffffffffffffffffffffff82169050919050565b6000610f0a82610edf565b9050919050565b610f1a81610eff565b8114610f2557600080fd5b50565b600081359050610f3781610f11565b92915050565b600060208284031215610f5357610f52610ed5565b5b6000610f6184828501610f28565b91505092915050565b6000819050919050565b610f7d81610f6a565b82525050565b6000602082019050610f986000830184610f74565b92915050565b60008115159050919050565b610fb381610f9e565b82525050565b6000602082019050610fce6000830184610faa565b92915050565b600080fd5b600060a08284031215610fef57610fee610fd4565b5b81905092915050565b600080fd5b600080fd5b600080fd5b60008083601f84011261101d5761101c610ff8565b5b8235905067ffffffffffffffff81111561103a57611039610ffd565b5b60208301915083600182028301111561105657611055611002565b5b9250929050565b60008060006040848603121561107657611075610ed5565b5b600084013567ffffffffffffffff81111561109457611093610eda565b5b6110a086828701610fd9565b935050602084013567ffffffffffffffff8111156110c1576110c0610eda565b5b6110cd86828701611007565b92509250509250925092565b6110e281610eff565b82525050565b60006020820190506110fd60008301846110d9565b92915050565b600082825260208201905092915050565b7f4f6e6c79206f776e65722063616e2063616c6c20746869732066756e6374696f60008201527f6e00000000000000000000000000000000000000000000000000000000000000602082015250565b6000611170602183611103565b915061117b82611114565b604082019050919050565b6000602082019050818103600083015261119f81611163565b9050919050565b7f52656c61796572206e6f7420666f756e64000000000000000000000000000000600082015250565b60006111dc601183611103565b91506111e7826111a6565b602082019050919050565b6000602082019050818103600083015261120b816111cf565b9050919050565b7f4e6f7420616e20617574686f72697a65642072656c6179657200000000000000600082015250565b6000611248601983611103565b915061125382611212565b602082019050919050565b600060208201905081810360008301526112778161123b565b9050919050565b600080fd5b600080fd5b600080fd5b600080833560016020038436030381126112aa576112a961127e565b5b80840192508235915067ffffffffffffffff8211156112cc576112cb611283565b5b6020830192506001820236038313156112e8576112e7611288565b5b509250929050565b600082825260208201905092915050565b82818337600083830152505050565b6000601f19601f8301169050919050565b600061132d83856112f0565b935061133a838584611301565b61134383611310565b840190509392505050565b600060a08201905061136360008301896110d9565b61137060208301886110d9565b61137d6040830187610f74565b61138a6060830186610f74565b818103608083015261139d818486611321565b9050979650505050505050565b600081905092915050565b7f19457468657265756d205369676e6564204d6573736167653a0a333200000000600082015250565b60006113eb601c836113aa565b91506113f6826113b5565b601c82019050919050565b6000819050919050565b6000819050919050565b61142661142182611401565b61140b565b82525050565b6000611437826113de565b91506114438284611415565b60208201915081905092915050565b7f496e76616c6964207369676e6174757265000000000000000000000000000000600082015250565b6000611488601183611103565b915061149382611452565b602082019050919050565b600060208201905081810360008301526114b78161147b565b9050919050565b7f496e76616c6964206e6f6e636500000000000000000000000000000000000000600082015250565b60006114f4600d83611103565b91506114ff826114be565b602082019050919050565b60006020820190508181036000830152611523816114e7565b9050919050565b7f4e487b7100000000000000000000000000000000000000000000000000000000600052601160045260246000fd5b600061156482610f6a565b91507fffffffffffffffffffffffffffffffffffffffffffffffffffffffffffffffff82036115965761159561152a565b5b600182019050919050565b600081905092915050565b60006115b883856115a1565b93506115c5838584611301565b82840190509392505050565b60006115de8284866115ac565b91508190509392505050565b7f5472616e73616374696f6e206661696c65640000000000000000000000000000600082015250565b6000611620601283611103565b915061162b826115ea565b602082019050919050565b6000602082019050818103600083015261164f81611613565b9050919050565b600060408201905061166b6000830186610f74565b818103602083015261167e818486611321565b9050949350505050565b7f52656c6179657220616c72656164792061646465640000000000000000000000600082015250565b60006116be601583611103565b91506116c982611688565b602082019050919050565b600060208201905081810360008301526116ed816116b1565b9050919050565b7f4e6577206f776e65722063616e6e6f7420626520746865207a65726f2061646460008201527f7265737300000000000000000000000000000000000000000000000000000000602082015250565b6000611750602483611103565b915061175b826116f4565b604082019050919050565b6000602082019050818103600083015261177f81611743565b9050919050565b7f4e487b7100000000000000000000000000000000000000000000000000000000600052602160045260246000fd5b6117be81611401565b82525050565b60006020820190506117d960008301846117b5565b92915050565b600060ff82169050919050565b6117f5816117df565b82525050565b600060808201905061181060008301876117b5565b61181d60208301866117ec565b61182a60408301856117b5565b61183760608301846117b5565b9594505050505056fea26469706673582212204337bad02cb2f7483d4049e12cc6f65832db62e1a883da834b34d982eadd1bb964736f6c63430008140033",
  "linkReferences": {},
  "deployedLinkReferences": {}
}